{
  "contractName": "Creature",
  "abi": [
    {
      "constant": true,
      "inputs": [
        {
          "name": "interfaceId",
          "type": "bytes4"
        }
      ],
      "name": "supportsInterface",
      "outputs": [
        {
          "name": "",
          "type": "bool"
        }
      ],
      "payable": false,
      "stateMutability": "view",
      "type": "function"
    },
    {
      "constant": true,
      "inputs": [],
      "name": "name",
      "outputs": [
        {
          "name": "",
          "type": "string"
        }
      ],
      "payable": false,
      "stateMutability": "view",
      "type": "function"
    },
    {
      "constant": true,
      "inputs": [
        {
          "name": "tokenId",
          "type": "uint256"
        }
      ],
      "name": "getApproved",
      "outputs": [
        {
          "name": "",
          "type": "address"
        }
      ],
      "payable": false,
      "stateMutability": "view",
      "type": "function"
    },
    {
      "constant": false,
      "inputs": [
        {
          "name": "to",
          "type": "address"
        },
        {
          "name": "tokenId",
          "type": "uint256"
        }
      ],
      "name": "approve",
      "outputs": [],
      "payable": false,
      "stateMutability": "nonpayable",
      "type": "function"
    },
    {
      "constant": true,
      "inputs": [],
      "name": "totalSupply",
      "outputs": [
        {
          "name": "",
          "type": "uint256"
        }
      ],
      "payable": false,
      "stateMutability": "view",
      "type": "function"
    },
    {
      "constant": false,
      "inputs": [
        {
          "name": "from",
          "type": "address"
        },
        {
          "name": "to",
          "type": "address"
        },
        {
          "name": "tokenId",
          "type": "uint256"
        }
      ],
      "name": "transferFrom",
      "outputs": [],
      "payable": false,
      "stateMutability": "nonpayable",
      "type": "function"
    },
    {
      "constant": true,
      "inputs": [
        {
          "name": "owner",
          "type": "address"
        },
        {
          "name": "index",
          "type": "uint256"
        }
      ],
      "name": "tokenOfOwnerByIndex",
      "outputs": [
        {
          "name": "",
          "type": "uint256"
        }
      ],
      "payable": false,
      "stateMutability": "view",
      "type": "function"
    },
    {
      "constant": false,
      "inputs": [
        {
          "name": "from",
          "type": "address"
        },
        {
          "name": "to",
          "type": "address"
        },
        {
          "name": "tokenId",
          "type": "uint256"
        }
      ],
      "name": "safeTransferFrom",
      "outputs": [],
      "payable": false,
      "stateMutability": "nonpayable",
      "type": "function"
    },
    {
      "constant": true,
      "inputs": [
        {
          "name": "index",
          "type": "uint256"
        }
      ],
      "name": "tokenByIndex",
      "outputs": [
        {
          "name": "",
          "type": "uint256"
        }
      ],
      "payable": false,
      "stateMutability": "view",
      "type": "function"
    },
    {
      "constant": true,
      "inputs": [
        {
          "name": "tokenId",
          "type": "uint256"
        }
      ],
      "name": "ownerOf",
      "outputs": [
        {
          "name": "",
          "type": "address"
        }
      ],
      "payable": false,
      "stateMutability": "view",
      "type": "function"
    },
    {
      "constant": true,
      "inputs": [
        {
          "name": "owner",
          "type": "address"
        }
      ],
      "name": "balanceOf",
      "outputs": [
        {
          "name": "",
          "type": "uint256"
        }
      ],
      "payable": false,
      "stateMutability": "view",
      "type": "function"
    },
    {
      "constant": false,
      "inputs": [],
      "name": "renounceOwnership",
      "outputs": [],
      "payable": false,
      "stateMutability": "nonpayable",
      "type": "function"
    },
    {
      "constant": false,
      "inputs": [
        {
          "name": "_to",
          "type": "address"
        }
      ],
      "name": "mintTo",
      "outputs": [],
      "payable": false,
      "stateMutability": "nonpayable",
      "type": "function"
    },
    {
      "constant": true,
      "inputs": [],
      "name": "owner",
      "outputs": [
        {
          "name": "",
          "type": "address"
        }
      ],
      "payable": false,
      "stateMutability": "view",
      "type": "function"
    },
    {
      "constant": true,
      "inputs": [],
      "name": "isOwner",
      "outputs": [
        {
          "name": "",
          "type": "bool"
        }
      ],
      "payable": false,
      "stateMutability": "view",
      "type": "function"
    },
    {
      "constant": true,
      "inputs": [],
      "name": "symbol",
      "outputs": [
        {
          "name": "",
          "type": "string"
        }
      ],
      "payable": false,
      "stateMutability": "view",
      "type": "function"
    },
    {
      "constant": false,
      "inputs": [
        {
          "name": "to",
          "type": "address"
        },
        {
          "name": "approved",
          "type": "bool"
        }
      ],
      "name": "setApprovalForAll",
      "outputs": [],
      "payable": false,
      "stateMutability": "nonpayable",
      "type": "function"
    },
    {
      "constant": false,
      "inputs": [
        {
          "name": "from",
          "type": "address"
        },
        {
          "name": "to",
          "type": "address"
        },
        {
          "name": "tokenId",
          "type": "uint256"
        },
        {
          "name": "_data",
          "type": "bytes"
        }
      ],
      "name": "safeTransferFrom",
      "outputs": [],
      "payable": false,
      "stateMutability": "nonpayable",
      "type": "function"
    },
    {
      "constant": true,
      "inputs": [
        {
          "name": "_tokenId",
          "type": "uint256"
        }
      ],
      "name": "tokenURI",
      "outputs": [
        {
          "name": "",
          "type": "string"
        }
      ],
      "payable": false,
      "stateMutability": "view",
      "type": "function"
    },
    {
      "constant": true,
      "inputs": [
        {
          "name": "owner",
          "type": "address"
        },
        {
          "name": "operator",
          "type": "address"
        }
      ],
      "name": "isApprovedForAll",
      "outputs": [
        {
          "name": "",
          "type": "bool"
        }
      ],
      "payable": false,
      "stateMutability": "view",
      "type": "function"
    },
    {
      "constant": false,
      "inputs": [
        {
          "name": "newOwner",
          "type": "address"
        }
      ],
      "name": "transferOwnership",
      "outputs": [],
      "payable": false,
      "stateMutability": "nonpayable",
      "type": "function"
    },
    {
      "inputs": [
        {
          "name": "_proxyRegistryAddress",
          "type": "address"
        }
      ],
      "payable": false,
      "stateMutability": "nonpayable",
      "type": "constructor"
    },
    {
      "anonymous": false,
      "inputs": [
        {
          "indexed": true,
          "name": "previousOwner",
          "type": "address"
        },
        {
          "indexed": true,
          "name": "newOwner",
          "type": "address"
        }
      ],
      "name": "OwnershipTransferred",
      "type": "event"
    },
    {
      "anonymous": false,
      "inputs": [
        {
          "indexed": true,
          "name": "from",
          "type": "address"
        },
        {
          "indexed": true,
          "name": "to",
          "type": "address"
        },
        {
          "indexed": true,
          "name": "tokenId",
          "type": "uint256"
        }
      ],
      "name": "Transfer",
      "type": "event"
    },
    {
      "anonymous": false,
      "inputs": [
        {
          "indexed": true,
          "name": "owner",
          "type": "address"
        },
        {
          "indexed": true,
          "name": "approved",
          "type": "address"
        },
        {
          "indexed": true,
          "name": "tokenId",
          "type": "uint256"
        }
      ],
      "name": "Approval",
      "type": "event"
    },
    {
      "anonymous": false,
      "inputs": [
        {
          "indexed": true,
          "name": "owner",
          "type": "address"
        },
        {
          "indexed": true,
          "name": "operator",
          "type": "address"
        },
        {
          "indexed": false,
          "name": "approved",
          "type": "bool"
        }
      ],
      "name": "ApprovalForAll",
      "type": "event"
    },
    {
      "constant": true,
      "inputs": [],
      "name": "baseTokenURI",
      "outputs": [
        {
          "name": "",
          "type": "string"
        }
      ],
      "payable": false,
      "stateMutability": "view",
      "type": "function"
    }
  ],
  "bytecode": "0x60806040526000600e553480156200001657600080fd5b5060405160208062001a06833981018060405260208110156200003857600080fd5b5051604080518082018252600b81527f5261696e626f77436f696e0000000000000000000000000000000000000000006020828101919091528251808401909352600383527f524742000000000000000000000000000000000000000000000000000000000090830152908282828181620000dc7f01ffc9a7000000000000000000000000000000000000000000000000000000006401000000006200021e810204565b620001107f80ac58cd000000000000000000000000000000000000000000000000000000006401000000006200021e810204565b620001447f780e9d63000000000000000000000000000000000000000000000000000000006401000000006200021e810204565b8151620001599060099060208501906200028b565b5080516200016f90600a9060208401906200028b565b50620001a47f5b5e139f000000000000000000000000000000000000000000000000000000006401000000006200021e810204565b5050600c8054600160a060020a031916331790819055604051600160a060020a03919091169250600091507f8be0079c531659141344cd1fd0a4f28419497f9722a3daafe3b4186f6b6457e0908290a3600d8054600160a060020a031916600160a060020a03929092169190911790555062000330915050565b7fffffffff0000000000000000000000000000000000000000000000000000000080821614156200024e57600080fd5b7fffffffff00000000000000000000000000000000000000000000000000000000166000908152602081905260409020805460ff19166001179055565b828054600181600116156101000203166002900490600052602060002090601f016020900481019282601f10620002ce57805160ff1916838001178555620002fe565b82800160010185558215620002fe579182015b82811115620002fe578251825591602001919060010190620002e1565b506200030c92915062000310565b5090565b6200032d91905b808211156200030c576000815560010162000317565b90565b6116c680620003406000396000f3fe6080604052600436106101275763ffffffff7c010000000000000000000000000000000000000000000000000000000060003504166301ffc9a7811461012c57806306fdde0314610189578063081812fc14610213578063095ea7b31461025957806318160ddd1461029457806323b872dd146102bb5780632f745c59146102fe57806342842e0e146103375780634f6ccce71461037a5780636352211e146103a457806370a08231146103ce578063715018a614610401578063755edd17146104165780638da5cb5b146104495780638f32d59b1461045e57806395d89b4114610473578063a22cb46514610488578063b88d4fde146104c3578063c87b56dd14610596578063d547cfb7146105c0578063e985e9c5146105d5578063f2fde38b14610610575b600080fd5b34801561013857600080fd5b506101756004803603602081101561014f57600080fd5b50357bffffffffffffffffffffffffffffffffffffffffffffffffffffffff1916610643565b604080519115158252519081900360200190f35b34801561019557600080fd5b5061019e61067b565b6040805160208082528351818301528351919283929083019185019080838360005b838110156101d85781810151838201526020016101c0565b50505050905090810190601f1680156102055780820380516001836020036101000a031916815260200191505b509250505060405180910390f35b34801561021f57600080fd5b5061023d6004803603602081101561023657600080fd5b5035610712565b60408051600160a060020a039092168252519081900360200190f35b34801561026557600080fd5b506102926004803603604081101561027c57600080fd5b50600160a060020a038135169060200135610744565b005b3480156102a057600080fd5b506102a96107fa565b60408051918252519081900360200190f35b3480156102c757600080fd5b50610292600480360360608110156102de57600080fd5b50600160a060020a03813581169160208101359091169060400135610800565b34801561030a57600080fd5b506102a96004803603604081101561032157600080fd5b50600160a060020a038135169060200135610825565b34801561034357600080fd5b506102926004803603606081101561035a57600080fd5b50600160a060020a03813581169160208101359091169060400135610873565b34801561038657600080fd5b506102a96004803603602081101561039d57600080fd5b503561088f565b3480156103b057600080fd5b5061023d600480360360208110156103c757600080fd5b50356108c4565b3480156103da57600080fd5b506102a9600480360360208110156103f157600080fd5b5035600160a060020a03166108e8565b34801561040d57600080fd5b5061029261091b565b34801561042257600080fd5b506102926004803603602081101561043957600080fd5b5035600160a060020a0316610985565b34801561045557600080fd5b5061023d6109ba565b34801561046a57600080fd5b506101756109c9565b34801561047f57600080fd5b5061019e6109da565b34801561049457600080fd5b50610292600480360360408110156104ab57600080fd5b50600160a060020a0381351690602001351515610a3b565b3480156104cf57600080fd5b50610292600480360360808110156104e657600080fd5b600160a060020a0382358116926020810135909116916040820135919081019060808101606082013564010000000081111561052157600080fd5b82018360208201111561053357600080fd5b8035906020019184600183028401116401000000008311171561055557600080fd5b91908080601f016020809104026020016040519081016040528093929190818152602001838380828437600092019190915250929550610abf945050505050565b3480156105a257600080fd5b5061019e600480360360208110156105b957600080fd5b5035610ae7565b3480156105cc57600080fd5b5061019e610b02565b3480156105e157600080fd5b50610175600480360360408110156105f857600080fd5b50600160a060020a0381358116916020013516610b39565b34801561061c57600080fd5b506102926004803603602081101561063357600080fd5b5035600160a060020a0316610bfd565b7bffffffffffffffffffffffffffffffffffffffffffffffffffffffff19811660009081526020819052604090205460ff165b919050565b60098054604080516020601f60026000196101006001881615020190951694909404938401819004810282018101909252828152606093909290918301828280156107075780601f106106dc57610100808354040283529160200191610707565b820191906000526020600020905b8154815290600101906020018083116106ea57829003601f168201915b505050505090505b90565b600061071d82610c1c565b151561072857600080fd5b50600090815260026020526040902054600160a060020a031690565b600061074f826108c4565b9050600160a060020a03838116908216141561076a57600080fd5b33600160a060020a038216148061078657506107868133610b39565b151561079157600080fd5b600082815260026020526040808220805473ffffffffffffffffffffffffffffffffffffffff1916600160a060020a0387811691821790925591518593918516917f8c5be1e5ebec7d5bd14f71427d1e84f3dd0314c0f7b2291e5b200ac8c7c3b92591a4505050565b60075490565b61080a3382610c39565b151561081557600080fd5b610820838383610c90565b505050565b6000610830836108e8565b821061083b57600080fd5b600160a060020a038316600090815260056020526040902080548390811061085f57fe5b906000526020600020015490505b92915050565b6108208383836020604051908101604052806000815250610abf565b60006108996107fa565b82106108a457600080fd5b60078054839081106108b257fe5b90600052602060002001549050919050565b600081815260016020526040812054600160a060020a031680151561086d57600080fd5b6000600160a060020a03821615156108ff57600080fd5b50600160a060020a031660009081526003602052604090205490565b6109236109c9565b151561092e57600080fd5b600c54604051600091600160a060020a0316907f8be0079c531659141344cd1fd0a4f28419497f9722a3daafe3b4186f6b6457e0908390a3600c805473ffffffffffffffffffffffffffffffffffffffff19169055565b61098d6109c9565b151561099857600080fd5b60006109a2610caf565b90506109ae8282610ccb565b6109b6610ce8565b5050565b600c54600160a060020a031690565b600c54600160a060020a0316331490565b600a8054604080516020601f60026000196101006001881615020190951694909404938401819004810282018101909252828152606093909290918301828280156107075780601f106106dc57610100808354040283529160200191610707565b600160a060020a038216331415610a5157600080fd5b336000818152600460209081526040808320600160a060020a03871680855290835292819020805460ff1916861515908117909155815190815290519293927f17307eab39ab6107e8899845ad3d59bd9653f200f220920489ca2b5937696c31929181900390910190a35050565b610aca848484610800565b610ad684848484610cf3565b1515610ae157600080fd5b50505050565b606061086d610af4610b02565b610afd84610e6f565b610f53565b60408051808201909152601a81527f68747470733a2f2f7261696e626f77636f2e696e2f636f696e2f000000000000602082015290565b600d54604080517fc4552791000000000000000000000000000000000000000000000000000000008152600160a060020a0385811660048301529151600093831692851691839163c455279191602480820192602092909190829003018186803b158015610ba657600080fd5b505afa158015610bba573d6000803e3d6000fd5b505050506040513d6020811015610bd057600080fd5b5051600160a060020a03161415610beb57600191505061086d565b610bf58484610f8f565b949350505050565b610c056109c9565b1515610c1057600080fd5b610c1981610fbd565b50565b600090815260016020526040902054600160a060020a0316151590565b600080610c45836108c4565b905080600160a060020a031684600160a060020a03161480610c80575083600160a060020a0316610c7584610712565b600160a060020a0316145b80610bf55750610bf58185610b39565b610c9b83838361103b565b610ca58382611157565b610820828261124e565b600e54600090610cc690600163ffffffff61128c16565b905090565b610cd5828261129e565b610cdf828261124e565b6109b68161135f565b600e80546001019055565b6000610d0784600160a060020a03166113a3565b1515610d1557506001610bf5565b6040517f150b7a020000000000000000000000000000000000000000000000000000000081523360048201818152600160a060020a03888116602485015260448401879052608060648501908152865160848601528651600095928a169463150b7a029490938c938b938b939260a4019060208501908083838e5b83811015610da8578181015183820152602001610d90565b50505050905090810190601f168015610dd55780820380516001836020036101000a031916815260200191505b5095505050505050602060405180830381600087803b158015610df757600080fd5b505af1158015610e0b573d6000803e3d6000fd5b505050506040513d6020811015610e2157600080fd5b50517bffffffffffffffffffffffffffffffffffffffffffffffffffffffff19167f150b7a020000000000000000000000000000000000000000000000000000000014915050949350505050565b6060811515610eb2575060408051808201909152600181527f30000000000000000000000000000000000000000000000000000000000000006020820152610676565b8160005b8115610eca57600101600a82049150610eb6565b6060816040519080825280601f01601f191660200182016040528015610ef7576020820181803883390190505b50905060001982015b8515610f4a57815160001982019160f860020a6030600a8a060102918491908110610f2757fe5b906020010190600160f860020a031916908160001a905350600a86049550610f00565b50949350505050565b604080516020818101835260008083528351808301855281815284519283019094528152606092610f889286928692906113ab565b9392505050565b600160a060020a03918216600090815260046020908152604080832093909416825291909152205460ff1690565b600160a060020a0381161515610fd257600080fd5b600c54604051600160a060020a038084169216907f8be0079c531659141344cd1fd0a4f28419497f9722a3daafe3b4186f6b6457e090600090a3600c805473ffffffffffffffffffffffffffffffffffffffff1916600160a060020a0392909216919091179055565b82600160a060020a031661104e826108c4565b600160a060020a03161461106157600080fd5b600160a060020a038216151561107657600080fd5b61107f81611600565b600160a060020a0383166000908152600360205260409020546110a990600163ffffffff61164816565b600160a060020a0380851660009081526003602052604080822093909355908416815220546110df90600163ffffffff61128c16565b600160a060020a0380841660008181526003602090815260408083209590955585825260019052838120805473ffffffffffffffffffffffffffffffffffffffff1916831790559251849391928716917fddf252ad1be2c89b69c2b068fc378daa952ba7f163c4a11628f55a4df523b3ef91a4505050565b600160a060020a03821660009081526005602052604081205461118190600163ffffffff61164816565b60008381526006602052604090205490915080821461121e57600160a060020a03841660009081526005602052604081208054849081106111be57fe5b90600052602060002001549050806005600087600160a060020a0316600160a060020a03168152602001908152602001600020838154811015156111fe57fe5b600091825260208083209091019290925591825260069052604090208190555b600160a060020a038416600090815260056020526040902080549061124790600019830161165d565b5050505050565b600160a060020a0390911660009081526005602081815260408084208054868652600684529185208290559282526001810183559183529091200155565b600082820183811015610f8857600080fd5b600160a060020a03821615156112b357600080fd5b6112bc81610c1c565b156112c657600080fd5b6000818152600160208181526040808420805473ffffffffffffffffffffffffffffffffffffffff1916600160a060020a03881690811790915584526003909152909120546113149161128c565b600160a060020a0383166000818152600360205260408082209390935591518392907fddf252ad1be2c89b69c2b068fc378daa952ba7f163c4a11628f55a4df523b3ef908290a45050565b600780546000838152600860205260408120829055600182018355919091527fa66cc928b5edb82af9bd49922954155ab7b0942694bea4ce44661d9a8736c6880155565b6000903b1190565b6060808690506060869050606086905060608690506060869050606081518351855187518951010101016040519080825280601f01601f1916602001820160405280156113ff576020820181803883390190505b509050806000805b885181101561146557888181518110151561141e57fe5b90602001015160f860020a900460f860020a02838380600101945081518110151561144557fe5b906020010190600160f860020a031916908160001a905350600101611407565b5060005b87518110156114c757878181518110151561148057fe5b90602001015160f860020a900460f860020a0283838060010194508151811015156114a757fe5b906020010190600160f860020a031916908160001a905350600101611469565b5060005b86518110156115295786818151811015156114e257fe5b90602001015160f860020a900460f860020a02838380600101945081518110151561150957fe5b906020010190600160f860020a031916908160001a9053506001016114cb565b5060005b855181101561158b57858181518110151561154457fe5b90602001015160f860020a900460f860020a02838380600101945081518110151561156b57fe5b906020010190600160f860020a031916908160001a90535060010161152d565b5060005b84518110156115ed5784818151811015156115a657fe5b90602001015160f860020a900460f860020a0283838060010194508151811015156115cd57fe5b906020010190600160f860020a031916908160001a90535060010161158f565b50909d9c50505050505050505050505050565b600081815260026020526040902054600160a060020a031615610c19576000908152600260205260409020805473ffffffffffffffffffffffffffffffffffffffff19169055565b60008282111561165757600080fd5b50900390565b8154818355818111156108205760008381526020902061082091810190830161070f91905b808211156116965760008155600101611682565b509056fea165627a7a72305820f8e0ce60825cbf4642ceff5ffdf202d4ae89a58a976032508f6dee95b96919160029",
  "source": "pragma solidity ^0.5.0;\n\nimport \"./TradeableERC721Token.sol\";\nimport \"openzeppelin-solidity/contracts/ownership/Ownable.sol\";\n\n/**\n * @title RainbowCoin\n * RainbowCoin - a contract for non-fungible RGB Tokens.\n */\ncontract Creature is TradeableERC721Token {\n    constructor(address _proxyRegistryAddress) TradeableERC721Token(\"RainbowCoin\", \"RGB\", _proxyRegistryAddress) public {  }\n\n    function baseTokenURI() public view returns (string memory) {\n        return \"https://rainbowco.in/coin/\";\n    }\n}\n",
  "sourcePath": "/Users/droxey/dev/repos/rainbowcoin/contracts/RainbowCoin.sol",
  "compiler": {
    "name": "solc",
    "version": "0.5.0+commit.1d4f565a.Emscripten.clang"
  },
  "schemaVersion": "3.0.11",
  "updatedAt": "2019-06-25T02:57:40.276Z",
  "devdoc": {
    "methods": {
      "approve(address,uint256)": {
        "details": "Approves another address to transfer the given token ID The zero address indicates there is no approved address. There can only be one approved address per token at a given time. Can only be called by the token owner or an approved operator.",
        "params": {
          "to": "address to be approved for the given token ID",
          "tokenId": "uint256 ID of the token to be approved"
        }
      },
      "balanceOf(address)": {
        "details": "Gets the balance of the specified address",
        "params": {
          "owner": "address to query the balance of"
        },
        "return": "uint256 representing the amount owned by the passed address"
      },
      "getApproved(uint256)": {
        "details": "Gets the approved address for a token ID, or zero if no address set Reverts if the token ID does not exist.",
        "params": {
          "tokenId": "uint256 ID of the token to query the approval of"
        },
        "return": "address currently approved for the given token ID"
      },
      "isOwner()": {
        "return": "true if `msg.sender` is the owner of the contract."
      },
      "mintTo(address)": {
        "details": "Mints a token to an address with a tokenURI.",
        "params": {
          "_to": "address of the future owner of the token"
        }
      },
      "name()": {
        "details": "Gets the token name",
        "return": "string representing the token name"
      },
      "owner()": {
        "return": "the address of the owner."
      },
      "ownerOf(uint256)": {
        "details": "Gets the owner of the specified token ID",
        "params": {
          "tokenId": "uint256 ID of the token to query the owner of"
        },
        "return": "owner address currently marked as the owner of the given token ID"
      },
      "renounceOwnership()": {
        "details": "Allows the current owner to relinquish control of the contract."
      },
      "safeTransferFrom(address,address,uint256)": {
        "details": "Safely transfers the ownership of a given token ID to another address If the target address is a contract, it must implement `onERC721Received`, which is called upon a safe transfer, and return the magic value `bytes4(keccak256(\"onERC721Received(address,address,uint256,bytes)\"))`; otherwise, the transfer is reverted.     * Requires the msg sender to be the owner, approved, or operator",
        "params": {
          "from": "current owner of the token",
          "to": "address to receive the ownership of the given token ID",
          "tokenId": "uint256 ID of the token to be transferred"
        }
      },
      "safeTransferFrom(address,address,uint256,bytes)": {
        "details": "Safely transfers the ownership of a given token ID to another address If the target address is a contract, it must implement `onERC721Received`, which is called upon a safe transfer, and return the magic value `bytes4(keccak256(\"onERC721Received(address,address,uint256,bytes)\"))`; otherwise, the transfer is reverted. Requires the msg sender to be the owner, approved, or operator",
        "params": {
          "_data": "bytes data to send along with a safe transfer check",
          "from": "current owner of the token",
          "to": "address to receive the ownership of the given token ID",
          "tokenId": "uint256 ID of the token to be transferred"
        }
      },
      "setApprovalForAll(address,bool)": {
        "details": "Sets or unsets the approval of a given operator An operator is allowed to transfer all tokens of the sender on their behalf",
        "params": {
          "approved": "representing the status of the approval to be set",
          "to": "operator address to set the approval"
        }
      },
      "supportsInterface(bytes4)": {
        "details": "implement supportsInterface(bytes4) using a lookup table"
      },
      "symbol()": {
        "details": "Gets the token symbol",
        "return": "string representing the token symbol"
      },
      "tokenByIndex(uint256)": {
        "details": "Gets the token ID at a given index of all the tokens in this contract Reverts if the index is greater or equal to the total number of tokens",
        "params": {
          "index": "uint256 representing the index to be accessed of the tokens list"
        },
        "return": "uint256 token ID at the given index of the tokens list"
      },
      "tokenOfOwnerByIndex(address,uint256)": {
        "details": "Gets the token ID at a given index of the tokens list of the requested owner",
        "params": {
          "index": "uint256 representing the index to be accessed of the requested tokens list",
          "owner": "address owning the tokens list to be accessed"
        },
        "return": "uint256 token ID at the given index of the tokens list owned by the requested address"
      },
      "totalSupply()": {
        "details": "Gets the total amount of tokens stored by the contract",
        "return": "uint256 representing the total amount of tokens"
      },
      "transferFrom(address,address,uint256)": {
        "details": "Transfers the ownership of a given token ID to another address Usage of this method is discouraged, use `safeTransferFrom` whenever possible Requires the msg sender to be the owner, approved, or operator",
        "params": {
          "from": "current owner of the token",
          "to": "address to receive the ownership of the given token ID",
          "tokenId": "uint256 ID of the token to be transferred"
        }
      },
      "transferOwnership(address)": {
        "details": "Allows the current owner to transfer control of the contract to a newOwner.",
        "params": {
          "newOwner": "The address to transfer ownership to."
        }
      }
    },
    "title": "RainbowCoin RainbowCoin - a contract for non-fungible RGB Tokens."
  },
  "userdoc": {
    "methods": {
      "isApprovedForAll(address,address)": {
        "notice": "Override isApprovedForAll to whitelist user's OpenSea proxy accounts to enable gas-less listings."
      },
      "renounceOwnership()": {
        "notice": "Renouncing to ownership will leave the contract without an owner. It will not be possible to call the functions with the `onlyOwner` modifier anymore."
      }
    }
  }
}