{
  "contractName": "Metadata",
  "abi": [
    {
      "constant": true,
      "inputs": [
        {
          "name": "_tokenId",
          "type": "uint256"
        }
      ],
      "name": "tokenURI",
      "outputs": [
        {
          "name": "_infoUrl",
          "type": "string"
        }
      ],
      "payable": false,
      "stateMutability": "pure",
      "type": "function"
    },
    {
      "constant": true,
      "inputs": [
        {
          "name": "x",
          "type": "uint256"
        }
      ],
      "name": "toBytes",
      "outputs": [
        {
          "name": "b",
          "type": "bytes"
        }
      ],
      "payable": false,
      "stateMutability": "pure",
      "type": "function"
    }
  ],
  "bytecode": "0x608060405234801561001057600080fd5b506104d6806100206000396000f3fe608060405234801561001057600080fd5b50600436106100365760003560e01c8063775a8f5e1461003b578063c87b56dd146100e2575b600080fd5b6100676004803603602081101561005157600080fd5b8101908080359060200190929190505050610189565b6040518080602001828103825283818151815260200191508051906020019080838360005b838110156100a757808201518184015260208101905061008c565b50505050905090810190601f1680156100d45780820380516001836020036101000a031916815260200191505b509250505060405180910390f35b61010e600480360360208110156100f857600080fd5b81019080803590602001909291905050506101cd565b6040518080602001828103825283818151815260200191508051906020019080838360005b8381101561014e578082015181840152602081019050610133565b50505050905090810190601f16801561017b5780820380516001836020036101000a031916815260200191505b509250505060405180910390f35b606060206040519080825280601f01601f1916602001820160405280156101bf5781602001600182028038833980820191505090505b509050816020820152919050565b6060806040518060400160405280601e81526020017f68747470733a2f2f7261696e626f77636f2e696e2f6d657461646174612f00008152509050606061021384610241565b905061023861022182610397565b61022a84610397565b6103c590919063ffffffff16565b92505050919050565b60606000829050600081141561028f576040518060400160405280600181526020017f3000000000000000000000000000000000000000000000000000000000000000815250915050610392565b600081905060005b600082146102b9578080600101915050600a82816102b157fe5b049150610297565b6060816040519080825280601f01601f1916602001820160405280156102ee5781602001600182028038833980820191505090505b50905060006001830390505b60008514610389576000600a868161030e57fe5b06603001905061031d81610189565b601f8151811061032957fe5b602001015160f81c60f81b8383806001900394508151811061034757fe5b60200101907effffffffffffffffffffffffffffffffffffffffffffffffffffffffffffff1916908160001a905350600a868161038057fe5b049550506102fa565b81955050505050505b919050565b61039f610490565b600060208301905060405180604001604052808451815260200182815250915050919050565b60608082600001518460000151016040519080825280601f01601f1916602001820160405280156104055781602001600182028038833980820191505090505b50905060006020820190506104238186602001518760000151610447565b61043c8560000151820185602001518660000151610447565b819250505092915050565b5b6020811061046b5781518352602083019250602082019150602081039050610448565b60006001826020036101000a0390508019835116818551168181178652505050505050565b60405180604001604052806000815260200160008152509056fea165627a7a723058207ee0d45da2928e129453737b6ada092a0ad15765b4592957e49d5195f32d7de60029",
  "source": "pragma solidity ^0.5.0;\n\nimport \"./helpers/strings.sol\";\n\ncontract Metadata {\n    using strings for *;\n\n    function tokenURI(uint _tokenId) public pure returns (string memory _infoUrl) {\n        string memory base = \"https://rainbowco.in/metadata/\";\n        string memory id = uint2str(_tokenId);\n        return base.toSlice().concat(id.toSlice());\n    }\n\n    function uint2str(uint i) internal pure returns (string memory) {\n        uint _tmpI = i;\n\n        if (_tmpI == 0)\n            return \"0\";\n        uint j = _tmpI;\n        uint length;\n        while (j != 0) {\n            length++;\n            j /= 10;\n        }\n        bytes memory bstr = new bytes(length);\n        uint k = length - 1;\n        while (_tmpI != 0) {\n            uint _uint = 48 + _tmpI % 10;\n            bstr[k--] = toBytes(_uint)[31];\n            _tmpI /= 10;\n        }\n        return string(bstr);\n    }\n\n    function toBytes(uint256 x) public pure returns (bytes memory b) {\n        b = new bytes(32);\n        assembly {\n            mstore(add(b, 32), x)\n        }\n    }\n}\n",
  "sourcePath": "/Users/droxey/dev/repos/rainbowcoin/contracts/Metadata.sol",
  "compiler": {
    "name": "solc",
    "version": "0.5.8+commit.23d335f2.Emscripten.clang"
  },
  "schemaVersion": "3.0.11",
  "updatedAt": "2019-06-21T01:07:58.112Z",
  "devdoc": {
    "methods": {}
  },
  "userdoc": {
    "methods": {}
  }
}