{
  "contractName": "RainbowCoin",
  "abi": [
    {
      "constant": true,
      "inputs": [
        {
          "name": "interfaceId",
          "type": "bytes4"
        }
      ],
      "name": "supportsInterface",
      "outputs": [
        {
          "name": "",
          "type": "bool"
        }
      ],
      "payable": false,
      "stateMutability": "view",
      "type": "function"
    },
    {
      "constant": true,
      "inputs": [],
      "name": "name",
      "outputs": [
        {
          "name": "",
          "type": "string"
        }
      ],
      "payable": false,
      "stateMutability": "view",
      "type": "function"
    },
    {
      "constant": true,
      "inputs": [
        {
          "name": "tokenId",
          "type": "uint256"
        }
      ],
      "name": "getApproved",
      "outputs": [
        {
          "name": "",
          "type": "address"
        }
      ],
      "payable": false,
      "stateMutability": "view",
      "type": "function"
    },
    {
      "constant": false,
      "inputs": [
        {
          "name": "to",
          "type": "address"
        },
        {
          "name": "tokenId",
          "type": "uint256"
        }
      ],
      "name": "approve",
      "outputs": [],
      "payable": false,
      "stateMutability": "nonpayable",
      "type": "function"
    },
    {
      "constant": true,
      "inputs": [],
      "name": "totalSupply",
      "outputs": [
        {
          "name": "",
          "type": "uint256"
        }
      ],
      "payable": false,
      "stateMutability": "view",
      "type": "function"
    },
    {
      "constant": false,
      "inputs": [
        {
          "name": "from",
          "type": "address"
        },
        {
          "name": "to",
          "type": "address"
        },
        {
          "name": "tokenId",
          "type": "uint256"
        }
      ],
      "name": "transferFrom",
      "outputs": [],
      "payable": false,
      "stateMutability": "nonpayable",
      "type": "function"
    },
    {
      "constant": true,
      "inputs": [
        {
          "name": "owner",
          "type": "address"
        },
        {
          "name": "index",
          "type": "uint256"
        }
      ],
      "name": "tokenOfOwnerByIndex",
      "outputs": [
        {
          "name": "",
          "type": "uint256"
        }
      ],
      "payable": false,
      "stateMutability": "view",
      "type": "function"
    },
    {
      "constant": true,
      "inputs": [],
      "name": "metadata",
      "outputs": [
        {
          "name": "",
          "type": "address"
        }
      ],
      "payable": false,
      "stateMutability": "view",
      "type": "function"
    },
    {
      "constant": false,
      "inputs": [
        {
          "name": "from",
          "type": "address"
        },
        {
          "name": "to",
          "type": "address"
        },
        {
          "name": "tokenId",
          "type": "uint256"
        }
      ],
      "name": "safeTransferFrom",
      "outputs": [],
      "payable": false,
      "stateMutability": "nonpayable",
      "type": "function"
    },
    {
      "constant": true,
      "inputs": [
        {
          "name": "index",
          "type": "uint256"
        }
      ],
      "name": "tokenByIndex",
      "outputs": [
        {
          "name": "",
          "type": "uint256"
        }
      ],
      "payable": false,
      "stateMutability": "view",
      "type": "function"
    },
    {
      "constant": true,
      "inputs": [
        {
          "name": "tokenId",
          "type": "uint256"
        }
      ],
      "name": "ownerOf",
      "outputs": [
        {
          "name": "",
          "type": "address"
        }
      ],
      "payable": false,
      "stateMutability": "view",
      "type": "function"
    },
    {
      "constant": true,
      "inputs": [
        {
          "name": "owner",
          "type": "address"
        }
      ],
      "name": "balanceOf",
      "outputs": [
        {
          "name": "",
          "type": "uint256"
        }
      ],
      "payable": false,
      "stateMutability": "view",
      "type": "function"
    },
    {
      "constant": false,
      "inputs": [],
      "name": "renounceOwnership",
      "outputs": [],
      "payable": false,
      "stateMutability": "nonpayable",
      "type": "function"
    },
    {
      "constant": true,
      "inputs": [],
      "name": "owner",
      "outputs": [
        {
          "name": "",
          "type": "address"
        }
      ],
      "payable": false,
      "stateMutability": "view",
      "type": "function"
    },
    {
      "constant": true,
      "inputs": [],
      "name": "isOwner",
      "outputs": [
        {
          "name": "",
          "type": "bool"
        }
      ],
      "payable": false,
      "stateMutability": "view",
      "type": "function"
    },
    {
      "constant": true,
      "inputs": [],
      "name": "symbol",
      "outputs": [
        {
          "name": "",
          "type": "string"
        }
      ],
      "payable": false,
      "stateMutability": "view",
      "type": "function"
    },
    {
      "constant": false,
      "inputs": [
        {
          "name": "to",
          "type": "address"
        },
        {
          "name": "approved",
          "type": "bool"
        }
      ],
      "name": "setApprovalForAll",
      "outputs": [],
      "payable": false,
      "stateMutability": "nonpayable",
      "type": "function"
    },
    {
      "constant": false,
      "inputs": [
        {
          "name": "from",
          "type": "address"
        },
        {
          "name": "to",
          "type": "address"
        },
        {
          "name": "tokenId",
          "type": "uint256"
        },
        {
          "name": "_data",
          "type": "bytes"
        }
      ],
      "name": "safeTransferFrom",
      "outputs": [],
      "payable": false,
      "stateMutability": "nonpayable",
      "type": "function"
    },
    {
      "constant": true,
      "inputs": [],
      "name": "maxSupply",
      "outputs": [
        {
          "name": "",
          "type": "uint256"
        }
      ],
      "payable": false,
      "stateMutability": "view",
      "type": "function"
    },
    {
      "constant": true,
      "inputs": [
        {
          "name": "owner",
          "type": "address"
        },
        {
          "name": "operator",
          "type": "address"
        }
      ],
      "name": "isApprovedForAll",
      "outputs": [
        {
          "name": "",
          "type": "bool"
        }
      ],
      "payable": false,
      "stateMutability": "view",
      "type": "function"
    },
    {
      "constant": false,
      "inputs": [
        {
          "name": "newOwner",
          "type": "address"
        }
      ],
      "name": "transferOwnership",
      "outputs": [],
      "payable": false,
      "stateMutability": "nonpayable",
      "type": "function"
    },
    {
      "inputs": [
        {
          "name": "name",
          "type": "string"
        },
        {
          "name": "symbol",
          "type": "string"
        },
        {
          "name": "_metadata",
          "type": "address"
        }
      ],
      "payable": false,
      "stateMutability": "nonpayable",
      "type": "constructor"
    },
    {
      "anonymous": false,
      "inputs": [
        {
          "indexed": true,
          "name": "previousOwner",
          "type": "address"
        },
        {
          "indexed": true,
          "name": "newOwner",
          "type": "address"
        }
      ],
      "name": "OwnershipTransferred",
      "type": "event"
    },
    {
      "anonymous": false,
      "inputs": [
        {
          "indexed": true,
          "name": "from",
          "type": "address"
        },
        {
          "indexed": true,
          "name": "to",
          "type": "address"
        },
        {
          "indexed": true,
          "name": "tokenId",
          "type": "uint256"
        }
      ],
      "name": "Transfer",
      "type": "event"
    },
    {
      "anonymous": false,
      "inputs": [
        {
          "indexed": true,
          "name": "owner",
          "type": "address"
        },
        {
          "indexed": true,
          "name": "approved",
          "type": "address"
        },
        {
          "indexed": true,
          "name": "tokenId",
          "type": "uint256"
        }
      ],
      "name": "Approval",
      "type": "event"
    },
    {
      "anonymous": false,
      "inputs": [
        {
          "indexed": true,
          "name": "owner",
          "type": "address"
        },
        {
          "indexed": true,
          "name": "operator",
          "type": "address"
        },
        {
          "indexed": false,
          "name": "approved",
          "type": "bool"
        }
      ],
      "name": "ApprovalForAll",
      "type": "event"
    },
    {
      "constant": true,
      "inputs": [
        {
          "name": "_colorId",
          "type": "uint256"
        }
      ],
      "name": "getColor",
      "outputs": [
        {
          "name": "red",
          "type": "uint8"
        },
        {
          "name": "green",
          "type": "uint8"
        },
        {
          "name": "blue",
          "type": "uint8"
        }
      ],
      "payable": false,
      "stateMutability": "view",
      "type": "function"
    },
    {
      "constant": false,
      "inputs": [
        {
          "name": "_red",
          "type": "uint8"
        },
        {
          "name": "_green",
          "type": "uint8"
        },
        {
          "name": "_blue",
          "type": "uint8"
        }
      ],
      "name": "mint",
      "outputs": [],
      "payable": false,
      "stateMutability": "nonpayable",
      "type": "function"
    },
    {
      "constant": false,
      "inputs": [
        {
          "name": "_metadata",
          "type": "address"
        }
      ],
      "name": "updateMetadata",
      "outputs": [],
      "payable": false,
      "stateMutability": "nonpayable",
      "type": "function"
    },
    {
      "constant": true,
      "inputs": [
        {
          "name": "_tokenId",
          "type": "uint256"
        }
      ],
      "name": "tokenURI",
      "outputs": [
        {
          "name": "_infoUrl",
          "type": "string"
        }
      ],
      "payable": false,
      "stateMutability": "view",
      "type": "function"
    }
  ],
  "bytecode": "0x60806040523480156200001157600080fd5b506040516200192338038062001923833981018060405260608110156200003757600080fd5b8101908080516401000000008111156200005057600080fd5b820160208101848111156200006457600080fd5b81516401000000008111828201871017156200007f57600080fd5b505092919060200180516401000000008111156200009c57600080fd5b82016020810184811115620000b057600080fd5b8151640100000000811182820187101715620000cb57600080fd5b5050602090910151909250905082828181620001107f01ffc9a700000000000000000000000000000000000000000000000000000000640100000000620002b5810204565b620001447f80ac58cd00000000000000000000000000000000000000000000000000000000640100000000620002b5810204565b620001787f780e9d6300000000000000000000000000000000000000000000000000000000640100000000620002b5810204565b81516200018d90600990602085019062000322565b508051620001a390600a90602084019062000322565b50620001d87f5b5e139f00000000000000000000000000000000000000000000000000000000640100000000620002b5810204565b5050600c8054600160a060020a031916331790819055604051600160a060020a03919091169250600091507f8be0079c531659141344cd1fd0a4f28419497f9722a3daafe3b4186f6b6457e0908290a3604080518082018252600b81527f5261696e626f77436f696e0000000000000000000000000000000000000000006020918201528151808301909252600382527f5247420000000000000000000000000000000000000000000000000000000000910152600d8054600160a060020a031916600160a060020a039290921691909117905550620003c79050565b7fffffffff000000000000000000000000000000000000000000000000000000008082161415620002e557600080fd5b7fffffffff00000000000000000000000000000000000000000000000000000000166000908152602081905260409020805460ff19166001179055565b828054600181600116156101000203166002900490600052602060002090601f016020900481019282601f106200036557805160ff191683800117855562000395565b8280016001018555821562000395579182015b828111156200039557825182559160200191906001019062000378565b50620003a3929150620003a7565b5090565b620003c491905b80821115620003a35760008155600101620003ae565b90565b61154c80620003d76000396000f3fe6080604052600436106101485763ffffffff7c010000000000000000000000000000000000000000000000000000000060003504166301ffc9a7811461014d57806306fdde03146101ad578063081812fc14610237578063095ea7b31461027d57806318160ddd146102b857806323b872dd146102df5780632f745c5914610322578063392f37e91461035b57806342842e0e146103705780634f6ccce7146103b35780636352211e146103dd57806370a0823114610407578063715018a61461043a57806380057b9a1461044f5780638da5cb5b1461049e5780638f32d59b146104b357806395d89b41146104c8578063a22cb465146104dd578063b88d4fde14610518578063c5e2a7db146105eb578063c87b56dd1461061e578063d5abeb0114610648578063e6f12af91461065d578063e985e9c51461069c578063f2fde38b146106d7575b600080fd5b34801561015957600080fd5b506101996004803603602081101561017057600080fd5b50357fffffffff000000000000000000000000000000000000000000000000000000001661070a565b604080519115158252519081900360200190f35b3480156101b957600080fd5b506101c2610741565b6040805160208082528351818301528351919283929083019185019080838360005b838110156101fc5781810151838201526020016101e4565b50505050905090810190601f1680156102295780820380516001836020036101000a031916815260200191505b509250505060405180910390f35b34801561024357600080fd5b506102616004803603602081101561025a57600080fd5b50356107d8565b60408051600160a060020a039092168252519081900360200190f35b34801561028957600080fd5b506102b6600480360360408110156102a057600080fd5b50600160a060020a03813516906020013561080a565b005b3480156102c457600080fd5b506102cd6108c0565b60408051918252519081900360200190f35b3480156102eb57600080fd5b506102b66004803603606081101561030257600080fd5b50600160a060020a038135811691602081013590911690604001356108c6565b34801561032e57600080fd5b506102cd6004803603604081101561034557600080fd5b50600160a060020a0381351690602001356108eb565b34801561036757600080fd5b50610261610938565b34801561037c57600080fd5b506102b66004803603606081101561039357600080fd5b50600160a060020a03813581169160208101359091169060400135610947565b3480156103bf57600080fd5b506102cd600480360360208110156103d657600080fd5b5035610963565b3480156103e957600080fd5b506102616004803603602081101561040057600080fd5b5035610998565b34801561041357600080fd5b506102cd6004803603602081101561042a57600080fd5b5035600160a060020a03166109c2565b34801561044657600080fd5b506102b66109f5565b34801561045b57600080fd5b506104796004803603602081101561047257600080fd5b5035610a5f565b6040805160ff9485168152928416602084015292168183015290519081900360600190f35b3480156104aa57600080fd5b50610261610ac4565b3480156104bf57600080fd5b50610199610ad3565b3480156104d457600080fd5b506101c2610ae4565b3480156104e957600080fd5b506102b66004803603604081101561050057600080fd5b50600160a060020a0381351690602001351515610b45565b34801561052457600080fd5b506102b66004803603608081101561053b57600080fd5b600160a060020a0382358116926020810135909116916040820135919081019060808101606082013564010000000081111561057657600080fd5b82018360208201111561058857600080fd5b803590602001918460018302840111640100000000831117156105aa57600080fd5b91908080601f016020809104026020016040519081016040528093929190818152602001838380828437600092019190915250929550610bc9945050505050565b3480156105f757600080fd5b506102b66004803603602081101561060e57600080fd5b5035600160a060020a0316610bf1565b34801561062a57600080fd5b506101c26004803603602081101561064157600080fd5b5035610c33565b34801561065457600080fd5b506102cd610d26565b34801561066957600080fd5b506102b66004803603606081101561068057600080fd5b5060ff8135811691602081013582169160409091013516610d2d565b3480156106a857600080fd5b50610199600480360360408110156106bf57600080fd5b50600160a060020a0381358116916020013516610df0565b3480156106e357600080fd5b506102b6600480360360208110156106fa57600080fd5b5035600160a060020a0316610e1e565b7fffffffff000000000000000000000000000000000000000000000000000000001660009081526020819052604090205460ff1690565b60098054604080516020601f60026000196101006001881615020190951694909404938401819004810282018101909252828152606093909290918301828280156107cd5780601f106107a2576101008083540402835291602001916107cd565b820191906000526020600020905b8154815290600101906020018083116107b057829003601f168201915b505050505090505b90565b60006107e382610e3d565b15156107ee57600080fd5b50600090815260026020526040902054600160a060020a031690565b600061081582610998565b9050600160a060020a03838116908216141561083057600080fd5b33600160a060020a038216148061084c575061084c8133610df0565b151561085757600080fd5b600082815260026020526040808220805473ffffffffffffffffffffffffffffffffffffffff1916600160a060020a0387811691821790925591518593918516917f8c5be1e5ebec7d5bd14f71427d1e84f3dd0314c0f7b2291e5b200ac8c7c3b92591a4505050565b60075490565b6108d03382610e5a565b15156108db57600080fd5b6108e6838383610eb9565b505050565b60006108f6836109c2565b821061090157600080fd5b600160a060020a038316600090815260056020526040902080548390811061092557fe5b9060005260206000200154905092915050565b600d54600160a060020a031681565b6108e68383836020604051908101604052806000815250610bc9565b600061096d6108c0565b821061097857600080fd5b600780548390811061098657fe5b90600052602060002001549050919050565b600081815260016020526040812054600160a060020a03168015156109bc57600080fd5b92915050565b6000600160a060020a03821615156109d957600080fd5b50600160a060020a031660009081526003602052604090205490565b6109fd610ad3565b1515610a0857600080fd5b600c54604051600091600160a060020a0316907f8be0079c531659141344cd1fd0a4f28419497f9722a3daafe3b4186f6b6457e0908390a3600c805473ffffffffffffffffffffffffffffffffffffffff19169055565b6000806000610a6c6114c3565b600e805486908110610a7a57fe5b600091825260209182902060408051606081018252929091015460ff8082168085526101008304821695850186905262010000909204169290910182905297919650945092505050565b600c54600160a060020a031690565b600c54600160a060020a0316331490565b600a8054604080516020601f60026000196101006001881615020190951694909404938401819004810282018101909252828152606093909290918301828280156107cd5780601f106107a2576101008083540402835291602001916107cd565b600160a060020a038216331415610b5b57600080fd5b336000818152600460209081526040808320600160a060020a03871680855290835292819020805460ff1916861515908117909155815190815290519293927f17307eab39ab6107e8899845ad3d59bd9653f200f220920489ca2b5937696c31929181900390910190a35050565b610bd48484846108c6565b610be084848484610ed8565b1515610beb57600080fd5b50505050565b610bf9610ad3565b1515610c0457600080fd5b600d805473ffffffffffffffffffffffffffffffffffffffff1916600160a060020a0392909216919091179055565b600d54604080517fc87b56dd000000000000000000000000000000000000000000000000000000008152600481018490529051606092600160a060020a03169163c87b56dd916024808301926000929190829003018186803b158015610c9857600080fd5b505afa158015610cac573d6000803e3d6000fd5b505050506040513d6000823e601f3d908101601f191682016040526020811015610cd557600080fd5b810190808051640100000000811115610ced57600080fd5b82016020810184811115610d0057600080fd5b8151640100000000811182820187101715610d1a57600080fd5b50909695505050505050565b62fd02ff81565b610d35610ad3565b1515610d4057600080fd5b610d486114c3565b506040805160608101825260ff808616825284811660208301908152848216938301938452600e80546001810180835560009290925284517fbb7b4a454dc3493923482f07822329ed19e8244eff582cc204f8554c3620c3fd9091018054935196518516620100000262ff0000199786166101000261ff00199390961660ff199095169490941791909116939093179490941617905590610de93382611057565b5050505050565b600160a060020a03918216600090815260046020908152604080832093909416825291909152205460ff1690565b610e26610ad3565b1515610e3157600080fd5b610e3a81611078565b50565b600090815260016020526040902054600160a060020a0316151590565b600080610e6683610998565b905080600160a060020a031684600160a060020a03161480610ea1575083600160a060020a0316610e96846107d8565b600160a060020a0316145b80610eb15750610eb18185610df0565b949350505050565b610ec48383836110f6565b610ece8382611212565b6108e68282611302565b6000610eec84600160a060020a0316611340565b1515610efa57506001610eb1565b6040517f150b7a020000000000000000000000000000000000000000000000000000000081523360048201818152600160a060020a03888116602485015260448401879052608060648501908152865160848601528651600095928a169463150b7a029490938c938b938b939260a4019060208501908083838e5b83811015610f8d578181015183820152602001610f75565b50505050905090810190601f168015610fba5780820380516001836020036101000a031916815260200191505b5095505050505050602060405180830381600087803b158015610fdc57600080fd5b505af1158015610ff0573d6000803e3d6000fd5b505050506040513d602081101561100657600080fd5b50517fffffffff00000000000000000000000000000000000000000000000000000000167f150b7a020000000000000000000000000000000000000000000000000000000014915050949350505050565b6110618282611348565b61106b8282611302565b61107481611409565b5050565b600160a060020a038116151561108d57600080fd5b600c54604051600160a060020a038084169216907f8be0079c531659141344cd1fd0a4f28419497f9722a3daafe3b4186f6b6457e090600090a3600c805473ffffffffffffffffffffffffffffffffffffffff1916600160a060020a0392909216919091179055565b82600160a060020a031661110982610998565b600160a060020a03161461111c57600080fd5b600160a060020a038216151561113157600080fd5b61113a8161144d565b600160a060020a03831660009081526003602052604090205461116490600163ffffffff61149516565b600160a060020a03808516600090815260036020526040808220939093559084168152205461119a90600163ffffffff6114aa16565b600160a060020a0380841660008181526003602090815260408083209590955585825260019052838120805473ffffffffffffffffffffffffffffffffffffffff1916831790559251849391928716917fddf252ad1be2c89b69c2b068fc378daa952ba7f163c4a11628f55a4df523b3ef91a4505050565b600160a060020a03821660009081526005602052604081205461123c90600163ffffffff61149516565b6000838152600660205260409020549091508082146112d957600160a060020a038416600090815260056020526040812080548490811061127957fe5b90600052602060002001549050806005600087600160a060020a0316600160a060020a03168152602001908152602001600020838154811015156112b957fe5b600091825260208083209091019290925591825260069052604090208190555b600160a060020a0384166000908152600560205260409020805490610de99060001983016114e3565b600160a060020a0390911660009081526005602081815260408084208054868652600684529185208290559282526001810183559183529091200155565b6000903b1190565b600160a060020a038216151561135d57600080fd5b61136681610e3d565b1561137057600080fd5b6000818152600160208181526040808420805473ffffffffffffffffffffffffffffffffffffffff1916600160a060020a03881690811790915584526003909152909120546113be916114aa565b600160a060020a0383166000818152600360205260408082209390935591518392907fddf252ad1be2c89b69c2b068fc378daa952ba7f163c4a11628f55a4df523b3ef908290a45050565b600780546000838152600860205260408120829055600182018355919091527fa66cc928b5edb82af9bd49922954155ab7b0942694bea4ce44661d9a8736c6880155565b600081815260026020526040902054600160a060020a031615610e3a576000908152600260205260409020805473ffffffffffffffffffffffffffffffffffffffff19169055565b6000828211156114a457600080fd5b50900390565b6000828201838110156114bc57600080fd5b9392505050565b604080516060810182526000808252602082018190529181019190915290565b8154818355818111156108e6576000838152602090206108e69181019083016107d591905b8082111561151c5760008155600101611508565b509056fea165627a7a72305820acf8056a3f914fd8c9a1955c0f26806f15a56e3bea0bcc6bb4802e147caeee770029",
  "source": "pragma solidity 0.5.0;\n\nimport \"../node_modules/openzeppelin-solidity/contracts/token/ERC721/ERC721Full.sol\";\nimport \"../node_modules/openzeppelin-solidity/contracts/ownership/Ownable.sol\";\nimport \"./Metadata.sol\";\n\ncontract RainbowCoin is ERC721Full, Ownable {\n    address public metadata;\n    uint256 public constant maxSupply = uint256(16581375); // (255 * 255 * 255)\n\n    struct RGBColor {\n        uint8 red;\n        uint8 green;\n        uint8 blue;\n    }\n\n    RGBColor[] colors;\n\n    constructor(string memory name, string memory symbol, address _metadata) public ERC721Full(name, symbol) {\n        name = \"RainbowCoin\";\n        symbol = \"RGB\";\n        metadata = _metadata;\n    }\n\n    function getColor(uint _colorId) public view returns(uint8 red, uint8 green, uint8 blue) {\n        RGBColor memory _color = colors[_colorId];\n\n        red = _color.red;\n        green = _color.green;\n        blue = _color.blue;\n    }\n\n    function mint(uint8 _red, uint8 _green, uint8 _blue) public onlyOwner {\n        RGBColor memory _color = RGBColor({ red: _red, green: _green, blue: _blue });\n        uint _colorId = colors.push(_color);\n        _mint(msg.sender, _colorId);\n    }\n\n    function updateMetadata(address _metadata) public onlyOwner {\n        metadata = _metadata;\n    }\n\n    function tokenURI(uint _tokenId) external view returns (string memory _infoUrl) {\n        return Metadata(metadata).tokenURI(_tokenId);\n    }\n}\n",
  "sourcePath": "/Users/droxey/dev/repos/rainbowcoin/contracts/RainbowCoin.sol",
  "compiler": {
    "name": "solc",
    "version": "0.5.0+commit.1d4f565a.Emscripten.clang"
  },
  "schemaVersion": "3.0.11",
  "updatedAt": "2019-06-24T17:23:34.640Z",
  "devdoc": {
    "methods": {
      "approve(address,uint256)": {
        "details": "Approves another address to transfer the given token ID The zero address indicates there is no approved address. There can only be one approved address per token at a given time. Can only be called by the token owner or an approved operator.",
        "params": {
          "to": "address to be approved for the given token ID",
          "tokenId": "uint256 ID of the token to be approved"
        }
      },
      "balanceOf(address)": {
        "details": "Gets the balance of the specified address",
        "params": {
          "owner": "address to query the balance of"
        },
        "return": "uint256 representing the amount owned by the passed address"
      },
      "getApproved(uint256)": {
        "details": "Gets the approved address for a token ID, or zero if no address set Reverts if the token ID does not exist.",
        "params": {
          "tokenId": "uint256 ID of the token to query the approval of"
        },
        "return": "address currently approved for the given token ID"
      },
      "isApprovedForAll(address,address)": {
        "details": "Tells whether an operator is approved by a given owner",
        "params": {
          "operator": "operator address which you want to query the approval of",
          "owner": "owner address which you want to query the approval of"
        },
        "return": "bool whether the given operator is approved by the given owner"
      },
      "isOwner()": {
        "return": "true if `msg.sender` is the owner of the contract."
      },
      "name()": {
        "details": "Gets the token name",
        "return": "string representing the token name"
      },
      "owner()": {
        "return": "the address of the owner."
      },
      "ownerOf(uint256)": {
        "details": "Gets the owner of the specified token ID",
        "params": {
          "tokenId": "uint256 ID of the token to query the owner of"
        },
        "return": "owner address currently marked as the owner of the given token ID"
      },
      "renounceOwnership()": {
        "details": "Allows the current owner to relinquish control of the contract."
      },
      "safeTransferFrom(address,address,uint256)": {
        "details": "Safely transfers the ownership of a given token ID to another address If the target address is a contract, it must implement `onERC721Received`, which is called upon a safe transfer, and return the magic value `bytes4(keccak256(\"onERC721Received(address,address,uint256,bytes)\"))`; otherwise, the transfer is reverted.     * Requires the msg sender to be the owner, approved, or operator",
        "params": {
          "from": "current owner of the token",
          "to": "address to receive the ownership of the given token ID",
          "tokenId": "uint256 ID of the token to be transferred"
        }
      },
      "safeTransferFrom(address,address,uint256,bytes)": {
        "details": "Safely transfers the ownership of a given token ID to another address If the target address is a contract, it must implement `onERC721Received`, which is called upon a safe transfer, and return the magic value `bytes4(keccak256(\"onERC721Received(address,address,uint256,bytes)\"))`; otherwise, the transfer is reverted. Requires the msg sender to be the owner, approved, or operator",
        "params": {
          "_data": "bytes data to send along with a safe transfer check",
          "from": "current owner of the token",
          "to": "address to receive the ownership of the given token ID",
          "tokenId": "uint256 ID of the token to be transferred"
        }
      },
      "setApprovalForAll(address,bool)": {
        "details": "Sets or unsets the approval of a given operator An operator is allowed to transfer all tokens of the sender on their behalf",
        "params": {
          "approved": "representing the status of the approval to be set",
          "to": "operator address to set the approval"
        }
      },
      "supportsInterface(bytes4)": {
        "details": "implement supportsInterface(bytes4) using a lookup table"
      },
      "symbol()": {
        "details": "Gets the token symbol",
        "return": "string representing the token symbol"
      },
      "tokenByIndex(uint256)": {
        "details": "Gets the token ID at a given index of all the tokens in this contract Reverts if the index is greater or equal to the total number of tokens",
        "params": {
          "index": "uint256 representing the index to be accessed of the tokens list"
        },
        "return": "uint256 token ID at the given index of the tokens list"
      },
      "tokenOfOwnerByIndex(address,uint256)": {
        "details": "Gets the token ID at a given index of the tokens list of the requested owner",
        "params": {
          "index": "uint256 representing the index to be accessed of the requested tokens list",
          "owner": "address owning the tokens list to be accessed"
        },
        "return": "uint256 token ID at the given index of the tokens list owned by the requested address"
      },
      "totalSupply()": {
        "details": "Gets the total amount of tokens stored by the contract",
        "return": "uint256 representing the total amount of tokens"
      },
      "transferFrom(address,address,uint256)": {
        "details": "Transfers the ownership of a given token ID to another address Usage of this method is discouraged, use `safeTransferFrom` whenever possible Requires the msg sender to be the owner, approved, or operator",
        "params": {
          "from": "current owner of the token",
          "to": "address to receive the ownership of the given token ID",
          "tokenId": "uint256 ID of the token to be transferred"
        }
      },
      "transferOwnership(address)": {
        "details": "Allows the current owner to transfer control of the contract to a newOwner.",
        "params": {
          "newOwner": "The address to transfer ownership to."
        }
      }
    }
  },
  "userdoc": {
    "methods": {
      "renounceOwnership()": {
        "notice": "Renouncing to ownership will leave the contract without an owner. It will not be possible to call the functions with the `onlyOwner` modifier anymore."
      }
    }
  }
}